:100000000C94D4000C94F1000C94F1000C94F100C9
:100010000C94F1000C94F1000C94F1000C94F1009C
:100020000C94F1000C94F1000C94F1000C94F1008C
:100030000C94F1000C94F1000C94F1000C94F1007C
:100040000C94F1000C94F1000C94F1000C94F1006C
:100050000C94F1000C94F1000C94F1000C94F1005C
:100060000C94F1000C94F10025780D00307825787F
:100070000D0A000A0D2020656E74657220612076DD
:100080006F6C7461676520746F2073657420617490
:100090002070696E31204F502D416D702E205B6DA8
:1000A000765D3A20000A0D2020656E74657220612D
:1000B00020766F6C7461676520746F20736574209F
:1000C00061742070696E37204F502D416D702E2065
:1000D0005B6D765D3A20000A0A0D72656D6F76657C
:1000E0002063616C6962726174696F6E206A756DFC
:1000F00070657220616E642072657365742E2E2E99
:10010000000A0D656E7465722074686520766F6CE8
:1001100074616765206174205664642050696E20A4
:100120005B6D765D2020202020203A2000656E74D3
:1001300065722074686520766F6C746167652061F4
:1001400074205670702050696E2028504135292047
:100150005B6D765D3A2000202D2D2D2D2D2D2D2D22
:100160002D2D2D2D2D2D2D2D2D2D2D2D2D2D2D2DBF
:100170002D2D2D2D2D2D2D2D2D2D0A0A0D000A0A88
:100180000D2043616C69627261746520746865203A
:1001900050574D20746F20616E616C6F67206F75D2
:1001A000747075740A0D000011241FBECFEFD8E0E3
:1001B000DEBFCDBF11E0A0E0B1E0E4E0F4E102C0B9
:1001C00005900D92AA32B107D9F723E0AAE2B1E077
:1001D00001C01D92AB32B207E1F70E9412060C94E7
:1001E000000A0C940000CF930E949405873410F00D
:1001F000875505C08A3310F0875301C08053C82F3C
:10020000C295C07F0E949405873410F0875505C0C1
:100210008A3310F0875301C080538C2BCF910895FF
:10022000CF930E94F300C82F0E94F3002C2F30E0E0
:10023000322F2227A901482BCA01CF910895219A74
:1002400082E88093800089E18093810008959093F3
:1002500087008093860070938900609388000895DA
:100260002091060130910701409108015091090148
:100270000E94240820E030E040E854E40E945A093B
:100280002091020130910301409104015091050138
:100290000E9424080E94960880E094E00C942701B4
:1002A000559A83E284BD89E085BD8FEF87BD80E8E4
:1002B00088BD089520910A0130910B0140910C01F5
:1002C00050910D010E94240820E030E04FE753E4F4
:1002D0000E945A09209102013091030140910401CA
:1002E000509105010E9424080E949D0868BD089550
:1002F000539A83E28093B0008AE08093B10084E156
:100300008093B3008FE08093B400089580917800CB
:100310002091790090E0922B08950F931F93CF9333
:10032000DF9308E010E0C0E0D0E00E948601C80F33
:10033000D91F2FEF86E791E0215080409040E1F7F0
:1003400000C000000150110981F7CE0123E095950E
:1003500087952A95E1F7DF91CF911F910F9108952D
:100360008295880F880F807CECE7F0E080838081A5
:10037000682B6083EAE7F0E087EE80838FE99FE0F7
:100380000197F1F700C0000087EA808308958F92FB
:100390009F92AF92BF92CF92DF92EF92FF92CF9354
:1003A000DF934B015C0169017A010E948D01EC0130
:1003B000A7019601C501B4010E94B807A7019601E3
:1003C0000E9424086B017C01BE01DD0F880B990B94
:1003D0000E94CE082DEC3CEC4CE85FE30E945A09E9
:1003E00020E030E040E85AE30E945A099B01AC014A
:1003F000C701B6010E945A09DF91CF91FF90EF909B
:10040000DF90CF90BF90AF909F908F9008950C9405
:10041000890560E070E080E091E40E94300160E0D6
:1004200070E080EC90E40E945A018EE791E09F9387
:100430008F930E940D0587E591E09F938F930E9413
:100440000D058DE291E09F938F930E940D050E9410
:100450009B05BC0180E090E00E94CC0820E030E0E9
:100460004AE754E40E9424082091060130910701D4
:1004700040910801509109010E945A0920E030E0A2
:1004800040E05EE30E945A09609306017093070101
:10049000809308019093090160E070E080E091E4AE
:1004A0000E94300181E091E09F938F930E940D059F
:1004B0000E949B05BC0180E090E00E94CC0820E0F7
:1004C00030E04AE754E40E94240820910A01309168
:1004D0000B0140910C0150910D010E945A0920E03E
:1004E00030E040EC50E40E94240860930A017093CD
:1004F0000B0180930C0190930D0160E070E080ECA3
:1005000090E40E945A016AEA80E190E00E94D509D5
:100510004091060150910701609108017091090115
:1005200088E190E00E94E30940910A0150910B019B
:1005300060910C0170910D0184E190E00E94E3094B
:1005400087ED90E09F938F930E940D058DB79EB726
:100550000A960FB6F8949EBF0FBE8DBFFFCF60E026
:1005600070E080EA90E40E94300163E373E383E586
:1005700090E40E945A0105EA10E0C3E7D0E01F931F
:100580000F930E940D050E949B05BC0180E090E046
:100590000E94CC0820E030E04AE754E40E9424089E
:1005A0000E943001DF93CF930E940D050E949B05AE
:1005B000BC0180E090E00E94CC0820E030E04AE7F7
:1005C00054E40E9424080E945A010F900F900F904B
:1005D0000F90D5CF6DEC7CEC8CE49DE30E945A012A
:1005E000569A5E9852985A9A8FE99FE00197F1F7D0
:1005F00000C00000089520E130E0261B310902C050
:10060000880F991F2A95E2F79C01529A90E05E9814
:10061000961781F037FF02C05A9A01C05A98220FEC
:10062000331F80E18A95F1F75E9A80E18A95F1F7B0
:100630009F5FEDCF52985A9A0895382F80E090E04E
:1006400020E05E98231791F040E14A95F1F75E9A19
:100650004AE04A95F1F700C0880F991F4A998160D6
:1006600045E04A95F1F700002F5FEBCF2AE02A958D
:10067000F1F700C05E9A4AE04A95F1F700C05E9833
:100680002AE02A95F1F700C008956DE00E94FB0270
:100690008EE00C941D03CF93C82F0E94EA0263E3FF
:1006A00073E383E590E40E945A018FE99FE001978C
:1006B000F1F700C0000060E070E080EB90E40E9481
:1006C00030018FE39CE90197F1F700C000006DEC69
:1006D0007CEC8CE49DE30E945A018FEC97E001973B
:1006E000F1F700C000008FE19EE40197F1F700C030
:1006F000000063E373E383E590E40E945A018FEC0A
:1007000097E00197F1F700C000008FE19EE40197A8
:10071000F1F700C0000060E185EA95EA0E94FB0263
:1007200068E085EA95EA0E94FB0268E08C2F90E081
:100730000E94FB0263E080E090E00E94FB028DE0FB
:100740000E941D039F70CF910895CF93DF9300D037
:10075000CDB7DEB787EA0E944B0389839A830E9454
:10076000EA02EFE3FCE93197F1F700C0000089816C
:100770009A810F900F90DF91CF91089583EA0E94A4
:100780004B0363E373E383E091E40E9430018FE362
:100790009CE90197F1F700C0000060E070E080E0A4
:1007A00090E40E945A01EFE3FCE93197F1F700C0B1
:1007B0000000529A5A9882E05E9AEFE1FEE4319787
:1007C000F1F700C000005E98FAE0FA95F1F700C07A
:1007D0005E9A9AE09A95F1F700C05E98EAE0EA9591
:1007E000F1F700C0813011F081E0E6CF5E9AFAE0C7
:1007F000FA95F1F700C05E988AE08A95F1F700C09B
:100800000E94EA02EFE3FCE93197F1F700C0000033
:100810000895EF92FF920F931F93CF93DF937C0184
:100820008B01EA016EE041FF10C08FEF9FEF0E9445
:10083000FB026EE08FEF9FEF0E94FB026EE0C701AC
:100840000E94FB026EE0C8010FC0C7010E94FB02BC
:100850006EE0C8010E94FB026EE08FEF9FEF0E94E6
:10086000FB026EE08FEF9FEF0E94FB026DE0CE0176
:100870008C7F0E94FB02529A95E09A95F1F7000056
:100880005A9A85E08A95F1F700005A9895E09A9572
:10089000F1F7000088E05E9A95E79A95F1F700007D
:1008A0005E9895E79A95F1F700008150A1F785E0F1
:1008B0008A95F1F7000052985A9A61E080E090E042
:1008C000DF91CF911F910F91FF90EF900C94FB025D
:1008D0008F929F92AF92BF92CF92DF92EF92FF9250
:1008E0001F93CF93DF93EC0115E0161B009711F4D3
:1008F00080E34EC097FF06C08DE20E940702D195AB
:10090000C195D10981E2C82E81E0D82EE12CF12CCD
:1009100020E030E0A12E012E000CBB08EA14FB04FD
:1009200061F4112351F0232B19F480E30E94070294
:100930008EE20E94070221E030E0F60161917191A0
:100940006F0180E090E0812C912CA401460F571F8D
:10095000C417D50718F001964A01F7CF009719F48C
:100960002115310529F0805D0E94070221E030E069
:10097000C819D909FFEFEF1AFF0A84E0E816F1045D
:1009800069F6143019F48EE20E9407028C2F805D04
:10099000DF91CF911F91FF90EF90DF90CF90BF90AC
:1009A000AF909F908F900C9407028A3010F4805D76
:1009B00001C0895C0C940702CF93DF93EC018F3F59
:1009C000910551F048F08D2F82958F700E94D504CB
:1009D0008D2F8F700E94D504CE0124E096958795C7
:1009E0002A95E1F78F700E94D5048C2F8F70DF91CC
:1009F000CF910C94D5040F931F93CF93DF93EC0109
:100A00008E0189910E940702F80180818111F8CF3F
:100A1000DF91CF911F910F910895CF92DF92EF92C6
:100A2000FF920F931F93CF93DF93CDB7DEB7DE0115
:100A30001B96ED90FD908D01F7018491882309F4B8
:100A40004EC0853209F045C0FFEFEF1AFF0AF701EB
:100A500084918436D9F068F4853271F18336D9F502
:100A60006801F2E0CF0ED11CF80180810E940702DC
:100A70002EC0833719F1883779F08B3661F568011C
:100A8000F2E0CF0ED11C60910E0110C06801F2E0BF
:100A9000CF0ED11C60E00AC06801F2E0CF0ED11C7D
:100AA000F801808191810E94DC0411C0F8018081ED
:100AB00091810E9468040BC085E20BC06801F2E0DE
:100AC000CF0ED11CF801808191810E94FB04860128
:100AD00002C00E940702FFEFEF1AFF0AADCFDF91BD
:100AE000CF911F910F91FF90EF90DF90CF900895DD
:100AF000E0ECF0E08081826080831092C50080E1AC
:100B00008093C40088E18093C10086E08093C20096
:100B100008959091C00095FFFCCF8093C600089582
:100B20008091C000807808958091C00087FFFCCF3D
:100B30008091C6000895DF92EF92FF920F931F936A
:100B4000CF93DF93C0E0D0E000E08AE0E82EF12C04
:100B50009AE0D92E0E949405182F8A3009F41DE0DE
:100B600080ED810F8A30E8F4209729F4882339F04A
:100B7000C82FD0E012C0CD3C9CE0D90788F5DC9EA0
:100B80009001DD9E300D11242F3E9FE7390710F0B4
:100B9000883030F5E901C80FD11D812F0E948905E9
:100BA0001FC01F3711F01830D9F4209769F0CE011B
:100BB000B7010E94A307EB0188E00E94890580E24B
:100BC0000E94890588E0EACF0023B1F088E00E9406
:100BD000890580E20E94890588E00E9489050CC091
:100BE0001D3269F4209709F0B5CF8DE20E94890586
:100BF000C0E0D0E001E0AECF1D32B9F300E01D301F
:100C000009F0A8CF002329F0882799278C1B9D0B7A
:100C100001C0CE01DF91CF911F910F91FF90EF9016
:100C2000DF9008952FEF32E547E0215030404040FB
:100C3000E1F700C000000E9478053998419A62E00F
:100C400083E00E94B0010E941F010E945001209A7F
:100C500083E090E0289AEFEFF1EE24E0E150F040DD
:100C60002040E1F700C0000028983FEF41EEE4E0AB
:100C700031504040E040E1F700C00000019751F7DB
:100C800020E030E040E85FE360E070E080E291E483
:100C90000E94C701609302017093030180930401D5
:100CA000909305016FE872EC85EF9CE30E943001A0
:100CB0006FE872EC85EF9CE30E945A01319B0E9421
:100CC000090280E190E00E94C7098A3AC1F488E1F4
:100CD00090E00E94CF096093060170930701809312
:100CE00008019093090184E190E00E94CF0960938C
:100CF0000A0170930B0180930C0190930D0193E016
:100D0000792E0CE610E028E6E22E20E0F22E0E947A
:100D1000900581110E9494058FE39CE90197F1F7FA
:100D200000C000000E9490058111F1CF0E9494053F
:100D3000803509F443C0823519F18237B9F70E9432
:100D4000EA026DEC7CEC8CE49DE30E9430016FE8DC
:100D500072EC85EF9CE30E945A01EFEFF1EE24E084
:100D6000E150F0402040E1F700C000004FEF89E67D
:100D700098E1415080409040E1F700C00000C7CFAB
:100D80000E94EA026DEC7CEC8CE49DE30E94300151
:100D90006FE872EC85EF9CE30E945A013FEF41EE51
:100DA00084E0315040408040E1F700C0000060E046
:100DB00070E080EA90E40E945A01D8CF70920E0150
:100DC0006AE077ED83EA9CE30E9430016AE077ED08
:100DD00083EA9CE30E945A019FEFE3EFF1E0915018
:100DE000E040F040E1F700C000000E94EA020E94EB
:100DF000A5039F938F931F930F930E940D050E944D
:100E00001001EC0160910001709101010E94A307A3
:100E10000F900F900F900F90892B09F06F5F6093E8
:100E20002A01289A0E94EA029FEFE0E7F2E091503F
:100E3000E040F040E1F700C000000E94BE032FEF49
:100E400030E742E0215030404040E1F700C0000070
:100E500087EA0E944B036AE979E989EB90E40E94F2
:100E60005A018FE39CE90197F1F700C0000063E3AA
:100E700073E383EF90E40E943001EFE3FCE93197E4
:100E8000F1F700C00000DF93CF93FF92EF920E9432
:100E90000D050F900F900F900F90C12CD12CA12C0D
:100EA000B12C80912A0190E0A816B906E4F58BE2F6
:100EB000882E81E0982E2091000130910101C4011B
:100EC0008B5291408217930730F40E949405F401ED
:100ED00081934F01F0CF812C912C80910001909152
:100EE000010188169906C0F4F401E55DFE4F2081EA
:100EF000818192816381CC16DD0638F470E0792B14
:100F000090E0A601922B0E940904F2E0CF0ED11CC2
:100F100024E0820E911CE1CF88E70E9489053FEF13
:100F2000A31AB30ABECF0E94EA026DEC7CEC8CE4FB
:100F30009DE30E9430016FE872EC85EF9CE30E9414
:100F40005A01289813CFAA1BBB1B51E107C0AA1F47
:100F5000BB1FA617B70710F0A61BB70B881F991F5A
:100F60005A95A9F780959095BC01CD0108955058E8
:100F7000BB27AA270E94CF070C9420090E941209C0
:100F800038F00E94190920F039F49F3F19F426F433
:100F90000C940F090EF4E095E7FB0C940909E92F76
:100FA0000E94310958F3BA1762077307840795073F
:100FB00020F079F4A6F50C9453090EF4E0950B2E6D
:100FC000BA2FA02D0B01B90190010C01CA01A0019B
:100FD0001124FF27591B99F0593F50F4503E68F1F6
:100FE0001A16F040A22F232F342F4427585FF3CF37
:100FF000469537952795A795F0405395C9F77EF408
:101000001F16BA0B620B730B840BBAF09150A1F050
:10101000FF0FBB1F661F771F881FC2F70EC0BA0FD6
:10102000621F731F841F48F4879577956795B7955E
:10103000F7959E3F08F0B0CF9395880F08F0992759
:10104000EE0F9795879508950E9438080C94200913
:101050000E94190958F00E94120940F029F45F3FDC
:1010600029F00C94090951110C9454090C940F099E
:101070000E94310968F39923B1F3552391F3951B2D
:10108000550BBB27AA2762177307840738F09F5FA9
:101090005F4F220F331F441FAA1FA9F335D00E2E16
:1010A0003AF0E0E832D091505040E695001CCAF783
:1010B0002BD0FE2F29D0660F771F881FBB1F261746
:1010C00037074807AB07B0E809F0BB0B802DBF011D
:1010D000FF2793585F4F3AF09E3F510578F00C94EC
:1010E00009090C9454095F3FE4F3983ED4F38695C4
:1010F00077956795B795F7959F5FC9F7880F911D0D
:101100009695879597F90895E1E0660F771F881FF8
:10111000BB1F621773078407BA0720F0621B730BAB
:10112000840BBA0BEE1F88F7E09508950E949D0886
:101130006894B1110C94540908950E94390988F0FB
:101140009F5798F0B92F9927B751B0F0E1F0660F8B
:10115000771F881F991F1AF0BA95C9F714C0B130CC
:1011600091F00E945309B1E008950C945309672F40
:10117000782F8827B85F39F0B93FCCF386957795FB
:101180006795B395D9F73EF49095809570956195E4
:101190007F4F8F4F9F4F0895E89409C097FB3EF40F
:1011A00090958095709561957F4F8F4F9F4F9923B4
:1011B000A9F0F92F96E9BB279395F6958795779532
:1011C0006795B795F111F8CFFAF4BB0F11F460FFF2
:1011D0001BC06F5F7F4F8F4F9F4F16C0882311F04A
:1011E00096E911C0772321F09EE8872F762F05C05E
:1011F000662371F096E8862F70E060E02AF09A95F9
:10120000660F771F881FDAF7880F9695879597F9ED
:10121000089597F99F6780E870E060E008959FEF78
:1012200080EC089500240A9416161706180609067D
:10123000089500240A94121613061406050608954C
:10124000092E0394000C11F4882352F0BB0F40F4D4
:10125000BF2B11F460FF04C06F5F7F4F8F4F9F4F14
:10126000089557FD9058440F551F59F05F3F71F096
:101270004795880F97FB991F61F09F3F79F08795FD
:101280000895121613061406551FF2CF4695F1DF86
:1012900008C0161617061806991FF1CF8695710516
:1012A000610508940895E894BB2766277727CB014A
:1012B00097F908950E946D090C9420090E94120963
:1012C00038F00E94190920F0952311F00C940909B7
:1012D0000C940F0911240C9454090E94310970F3E5
:1012E000959FC1F3950F50E0551F629FF001729FCB
:1012F000BB27F00DB11D639FAA27F00DB11DAA1FDA
:10130000649F6627B00DA11D661F829F2227B00D26
:10131000A11D621F739FB00DA11D621F839FA00DB1
:10132000611D221F749F3327A00D611D231F849F01
:10133000600D211D822F762F6A2F11249F57504058
:101340009AF0F1F088234AF0EE0FFF1FBB1F661FD3
:10135000771F881F91505040A9F79E3F510580F09C
:101360000C9409090C9454095F3FE4F3983ED4F3BC
:10137000869577956795B795F795E7959F5FC1F740
:10138000FE2B880F911D9695879597F90895F999E9
:10139000FECF92BD81BDF89A992780B50895A6E148
:1013A000B0E044E050E00C94F209262FF999FECF0A
:1013B0001FBA92BD81BD20BD0FB6F894FA9AF99A72
:1013C0000FBE01960895242F0E94D609252F0E9452
:1013D000D6090C94EB090E94D509272F0C94D60945
:1013E000DC01CB01FC01F999FECF06C0F2BDE1BDE5
:1013F000F89A319600B40D9241505040B8F70895D4
:04140000F894FFCF8E
:10140400F4010000A0406666B6400000004001A15F
:101414000AFF07333303413333F3400000B0400D78
:0A1424000E1027E80364000A000020
:00000001FF
